:100000000C9462000C948A000C948A000C948A0070
:100010000C948A000C948A000C948A000C948A0038
:100020000C948A000C948A000C948A000C948A0028
:100030000C948A000C948A000C948A000C948A0018
:100040000C94CE060C948A000C949C060C947606B4
:100050000C948A000C948A000C948A000C948A00F8
:100060000C948A000C948A000000000024002700F1
:100070002A0000000000250028002B0000000000DE
:1000800023002600290004040404040404040202DA
:100090000202020203030303030301020408102007
:1000A0004080010204081020010204081020000012
:1000B0000008000201000003040700000000000027
:1000C00000008F0811241FBECFEFD8E0DEBFCDBFE8
:1000D00011E0A0E0B1E0EEE1F7E102C005900D9281
:1000E000A63CB107D9F722E0A6ECB1E001C01D9211
:1000F000A337B207E1F710E0C2E6D0E004C02197D1
:10010000FE010E94820BC136D107C9F70E94180771
:100110000C948D0B0C940000E091D601F091D70166
:100120000190F081E02D682F86ED91E00994CF9247
:10013000DF92EF92FF920F931F93CF93DF936C01A7
:100140007A018B01C0E0D0E0CE15DF0589F0D8013F
:100150006D918D01D601ED91FC910190F081E02D22
:10016000C6010995892B11F47E0102C02196ECCFBE
:10017000C701DF91CF911F910F91FF90EF90DF901A
:10018000CF900895089580E090E00895FC01538D8C
:10019000448D252F30E0842F90E0821B930B541761
:1001A00010F0CF96089501970895FC01918D828DEE
:1001B000981761F0828DDF01A80FB11D5D968C91BB
:1001C000928D9F5F9F73928F90E008958FEF9FEFC6
:1001D0000895FC01918D828D981731F0828DE80F82
:1001E000F11D858D90E008958FEF9FEF0895FC013C
:1001F000918D228D892F90E0805C9F4F821B910909
:100200008F739927089586ED91E00E94F70021E011
:10021000892B09F420E0822F0895FC01848DDF01F1
:10022000A80FB11DA35ABF4F2C91848D90E0019669
:100230008F739927848FA689B7892C93A089B18958
:100240008C9180648C93938D848D981306C0028862
:10025000F389E02D80818F7D80830895EF92FF9256
:100260000F931F93CF93DF93EC0181E0888F9B8DD9
:100270008C8D981305C0E889F989808185FD24C09B
:10028000F62E0B8D10E00F5F1F4F0F731127E02E1E
:100290008C8DE8120CC00FB607FCFACFE889F989FB
:1002A000808185FFF5CFCE010E940D01F1CF8B8DAE
:1002B000FE01E80FF11DE35AFF4FF0820B8FEA8930
:1002C000FB898081806207C0EE89FF896083E889AD
:1002D000F98980818064808381E090E0DF91CF9113
:1002E0001F910F91FF90EF900895CF93DF93EC0152
:1002F000888D8823C9F0EA89FB89808185FD05C046
:10030000A889B9898C9186FD0FC00FB607FCF5CF7F
:10031000808185FFF2CFA889B9898C9185FFEDCFC7
:10032000CE010E940D01E7CFDF91CF91089580E0CB
:1003300090E0892B29F00E94030181110C940000A8
:100340000895833081F028F4813099F08230A1F053
:1003500008958730A9F08830B9F08430D1F48091C5
:1003600080008F7D03C0809180008F778093800014
:10037000089584B58F7702C084B58F7D84BD0895BC
:100380008091B0008F7703C08091B0008F7D809303
:10039000B0000895CF93DF93282F30E0F901E255A4
:1003A000FF4F8491F901E656FF4FD491F901EA57C6
:1003B000FF4FC491CC2391F081110E94A101EC2F39
:1003C000F0E0EE0FFF1FE458FF4FA591B491EC91C0
:1003D000ED2381E090E021F480E002C080E090E035
:1003E000DF91CF9108951F93CF93DF93282F30E0B3
:1003F000F901E255FF4F8491F901E656FF4FD49180
:10040000F901EA57FF4FC491CC23C9F0162F81118F
:100410000E94A101EC2FF0E0EE0FFF1FEE58FF4FFE
:10042000A591B4918FB7F894111105C09C91ED2F4F
:10043000E095E92302C0EC91ED2BEC938FBFDF91A7
:10044000CF911F910895CF93DF9390E0FC01E65682
:10045000FF4F2491FC01EA57FF4F8491882361F1FB
:1004600090E0880F991FFC01E859FF4FC591D49186
:10047000FC01EE58FF4FA591B491611109C09FB7DF
:10048000F8948881209582238883EC912E230BC0D9
:10049000623061F49FB7F8943881822F809583236E
:1004A0008883EC912E2B2C939FBF06C08FB7F894B6
:1004B000E8812E2B28838FBFDF91CF9108958E3056
:1004C00008F08E508770806480937C0080917A0061
:1004D000806480937A0080917A0086FDFCCF8091C1
:1004E00078002091790090E0922B08953FB7F8941E
:1004F0008091CB019091CC01A091CD01B091CE0122
:1005000026B5A89B05C02F3F19F00196A11DB11D6E
:100510003FBFBA2FA92F982F8827820F911DA11DA9
:10052000B11DBC01CD0142E0660F771F881F991FE6
:100530004A95D1F708958F929F92AF92BF92CF9232
:10054000DF92EF92FF926B017C010E9476024B01D9
:100550005C01C114D104E104F104F1F00E947602BF
:10056000DC01CB0188199909AA09BB09883E93408F
:10057000A105B10570F321E0C21AD108E108F10824
:1005800088EE880E83E0981EA11CB11CC114D10412
:10059000E104F10419F7DDCFFF90EF90DF90CF90E9
:1005A000BF90AF909F908F9008958F929F92AF923F
:1005B000BF92CF92DF92EF92FF920F931F93CF9350
:1005C000DF93CDB7DEB7AC970FB6F894DEBF0FBEA2
:1005D000CDBF4C015A016901CE0101967C0188E230
:1005E000D7011D928A95E9F7D401ED91FC91008421
:1005F000F185E02DA701C4010995009709F053C0CA
:100600001CA61BA61AA619A6D401ED91FC91028482
:10061000F385E02D9E01275D3F4FAE01455D5F4FA5
:10062000B701C40109950097F1F50115110539F0DD
:1006300088E2F701D80101900D928A95E1F7A114A3
:10064000B10481F08CA5682F782F770F770B072ED8
:10065000000C880B990B0E94330AF50160837183AB
:1006600082839383C114D10489F08AA5682F782FDF
:10067000770F770B072E000C880B990B0E94330A1B
:10068000D6016D937D938D939C9313978BA59CA519
:10069000009739F429A53AA5232B29F48AE690E09E
:1006A00002C080E090E0AC960FB6F894DEBF0FBEBB
:1006B000CDBFDF91CF911F910F91FF90EF90DF9011
:1006C000CF90BF90AF909F908F9008958F929F9200
:1006D000AF92BF92CF92DF92EF92FF920F931F9350
:1006E000CF93DF93EC018B015A016901E881F98115
:1006F0000680F781E02D0995982EE881F981B801EF
:10070000685F7F4F0680F781E02DCE010995F82EB6
:10071000E881F981B801605F7F4F0680F781E02DA5
:10072000CE010995882EE881F981B801685E7F4F76
:100730000680F781E02DCE010995E82EE881F98148
:10074000B801605E7F4F0680F781E02DCE010995EC
:100750009F2D990D980D9E0D891310C02E2D30E000
:100760003829F501318320834F2D50E0CA019929A2
:10077000F6019183808380E090E002C089E690E0FA
:10078000DF91CF911F910F91FF90EF90DF90CF906D
:10079000BF90AF909F908F90089540E050E080E030
:1007A000A7E0B0E0FB012191BF01FD01E41BF50BC7
:1007B00001C0220FEA95EAF7820F4F5F5F4F483082
:1007C000510581F70895AF92BF92DF92EF92FF92A9
:1007D0000F931F93CF93DF93D62ECA016AE070E088
:1007E0000E945A0BEB01181619060CF4219600E032
:1007F00010E083E2A82EB12CE22EF12C0C171D077D
:1008000064F4F5013197F1F78D2D0E94CA018E1520
:100810009F0531F40F5F1F4FF1CF8FEF9FEF02C0A5
:1008200080E090E0DF91CF911F910F91FF90EF90CA
:10083000DF90BF90AF900895CF92DF92EF92FF923A
:100840000F931F93CF93DF93CDB7DEB728970FB6E3
:10085000F894DEBF0FBECDBF6A0179011D821E82F2
:100860001F82188619821A821B821C82DC01ED917C
:10087000FC910280F381E02D9E012F5F3F4FAE017E
:100880004B5F5F4F09958C01892BB1F4C114D104E2
:1008900041F06D817E818F8198850E94FB09F60170
:1008A0006083E114F10441F069817A818B819C813C
:1008B0000E94FB09D7016C93C80128960FB6F894E3
:1008C000DEBF0FBECDBFDF91CF911F910F91FF9083
:1008D000EF90DF90CF900895009769F0FC010190B0
:1008E0000020E9F73197AF01481B590BBC0186ED99
:1008F00091E00C94970080E090E00895CF93DF930F
:100900000E946C04EC0184E291E00E946C048C0F64
:100910009D1FDF91CF9108958F929F92AF92BF92CA
:100920000F931F93CF93DF93CDB7DEB7A1970FB689
:10093000F894DEBF0FBECDBF19A2423008F44AE0E2
:100940008E010F5D1F4F842E912CA12CB12CA5017F
:1009500094010E94E608E62FB901CA01015011096D
:10096000EA3014F4E05D01C0E95CD801EC93232B7C
:10097000242B252B61F7C8010E946C04A1960FB6A9
:10098000F894DEBF0FBECDBFDF91CF911F910F91C5
:10099000BF90AF909F908F900895CF92DF92EF928B
:1009A000FF92CF93DF936C01990FEE08FF08F7FEDB
:1009B00017C08DE20E948C00EC0166277727CB01DF
:1009C0006C197D098E099F094AE00E948C048C0FE6
:1009D0009D1FDF91CF91FF90EF90DF90CF90089512
:1009E0004AE0C701B601DF91CF91FF90EF90DF9011
:1009F000CF900C948C044F925F926F927F928F9263
:100A00009F92AF92BF92CF92DF92EF92FF926B01D3
:100A10007C01B42E9B01AC010E94550B882319F078
:100A200087E291E027C026013701E89477F82FEF9D
:100A30003FEF4FE75FE7C301B2010E94550B811101
:100A40000DC02FEF3FEF4FE75FE7C301B2010E94F8
:100A5000840918161CF48BE291E00CC02FEF3FEFD5
:100A60004FE75FE4C701B6010E94E30A181684F459
:100A70008FE291E0FF90EF90DF90CF90BF90AF902A
:100A80009F908F907F906F905F904F900C946C042C
:100A90002FEF3FEF4FE75FECC701B6010E948409DB
:100AA00087FDE6CF20E030E0A901C701B6010E9432
:100AB000840987FF09C08DE20E948C004C01F7FA7F
:100AC000F094F7F8F09402C0812C912CA12C60E0F6
:100AD00070E080E09FE3AB1441F020E030E040E2C2
:100AE00051E40E948909A394F6CF9B01AC01C70190
:100AF000B6010E9418092B013C010E94020A6B01F9
:100B00007C010E94310A9B01AC01C301B2010E9429
:100B100017092B013C014AE0C701B6010E948C0471
:100B20007C01E80CF91CBB2029F08EE20E948C00AD
:100B3000E80EF91EDB2CDD2021F120E030E040E260
:100B400051E4C301B2010E94E80A2B013C010E945A
:100B5000020A4B01A12CB12C4AE0C501B4010E944C
:100B60008C04E80EF91EC501B4010E94310A9B01F4
:100B7000AC01C301B2010E9417092B013C01DA94B8
:100B8000DACFC701FF90EF90DF90CF90BF90AF908A
:100B90009F908F907F906F905F904F9008950E94EC
:100BA000880B8F929F92AF92BF92CF92DF92EF927B
:100BB000FF920F931F93CF93DF938C01EB017A0188
:100BC00088E2DA011D928A95E9F761E08C2F0E9494
:100BD000230260E08C2F0E94F30164E170E080E06A
:100BE00090E00E949B0261E08C2F0E94F30160E084
:100BF0008C2F0E94230283E790E00197F1F7D80140
:100C0000ED91FC910480F581E02D20E040E550E07D
:100C1000BE01C8010995892BB9F5D801ED91FC9168
:100C20000480F581E02D21E040E550E0BE01C801DF
:100C30000995892B61F55701B8E2AB0EB11C83E22F
:100C4000882E912CD801ED91FC910480F581E02D46
:100C500020E042E350E0BE01C8010995892BD1F4A0
:100C6000C12CD12C8C2F0E94CA010197B1F4C40170
:100C70000197F1F7BFEFCB1ADB0AE8E0CE16D104FB
:100C800089F787E690E025C084E690E022C085E6FB
:100C900090E01FC086E690E01CC081E0B4E0CB1677
:100CA000D1040CF480E0F70181937F01EA15FB0584
:100CB00049F6D801ED91FC910480F581E02D20E00A
:100CC00042E350E0BE01C8010995009711F088E6A3
:100CD00090E0DF91CF911F910F91FF90EF90DF9007
:100CE000CF90BF90AF909F908F9008951F920F92DA
:100CF0000FB60F9211242F933F934F935F936F93EF
:100D00007F938F939F93AF93BF93EF93FF9386ED62
:100D100091E00E940D01FF91EF91BF91AF919F91E2
:100D20008F917F916F915F914F913F912F910F9094
:100D30000FBE0F901F9018951F920F920FB60F9233
:100D400011242F938F939F93EF93FF93E091E601EC
:100D5000F091E7018081E091EC01F091ED0182FDDD
:100D600012C090818091EF018F5F8F732091F0010D
:100D7000821751F0E091EF01F0E0EA52FE4F958FBB
:100D80008093EF0101C08081FF91EF919F918F913E
:100D90002F910F900FBE0F901F9018951F920F92DA
:100DA0000FB60F9211242F933F938F939F93AF937E
:100DB000BF938091C7019091C801A091C901B091E2
:100DC000CA013091C60123E0230F2D3720F401968C
:100DD000A11DB11D05C026E8230F0296A11DB11D5E
:100DE0002093C6018093C7019093C801A093C901C5
:100DF000B093CA018091CB019091CC01A091CD011B
:100E0000B091CE010196A11DB11D8093CB019093AD
:100E1000CC01A093CD01B093CE01BF91AF919F9132
:100E20008F913F912F910F900FBE0F901F901895AB
:100E3000CF93DF9300D0CDB7DEB7789484B58260CE
:100E400084BD84B5816084BD85B5826085BD85B56E
:100E5000816085BD80916E00816080936E001092EC
:100E60008100809181008260809381008091810067
:100E700081608093810080918000816080938000F8
:100E80008091B10084608093B1008091B000816056
:100E90008093B00080917A00846080937A00809182
:100EA0007A00826080937A0080917A0081608093DA
:100EB0007A0080917A00806880937A001092C10055
:100EC000E091E601F091E70182E08083E091E201A8
:100ED000F091E3011082E091E401F091E5018FECE3
:100EE00080831092EE01E091EA01F091EB0186E03F
:100EF0008083E091E801F091E90180818061808345
:100F0000E091E801F091E901808188608083E091BF
:100F1000E801F091E901808180688083E091E80137
:100F2000F091E90180818F7D808361E086E00E94FD
:100F3000230261E087E00E94230260E087E00E94D4
:100F4000F30160E086E00E94F30187E8882E912C8F
:100F5000A12CB12C83E391E00E947E0485E591E011
:100F60000E947E041A82198200E010E09E012F5F29
:100F70003F4FAE014E5F5F4F62E070E080E091E076
:100F80000E941C046C01892B01F18DE691E00E9406
:100F90006C040D2C000CEE08FF08F7FE0CC08DE26F
:100FA0000E948C0066277727CB016C197D098E097A
:100FB0009F094AE003C04AE0C701B6010E948C04C1
:100FC00084E291E00E946C04A1C08EE00E945F0266
:100FD0007C019093D5018093D4018FE00E945F0241
:100FE0006C019093D3018093D20180E10E945F0253
:100FF0008C019093D1018093D00185E891E00E940B
:101000006C04C801110FAA0BBB0B9C01AD0132503F
:1010100041095109AFEFB3E00E94DB08A50194013B
:101020000E94BC08CA01B9010E94330A2AE038E2D2
:1010300040E25CE30E94E80A42E00E94FB048FE881
:1010400091E00E947E0482E991E00E946C04B60166
:10105000DD0C880B990B0E94330A2AE038E240EA43
:101060005BE30E94E80A42E00E94FB048AE991E007
:101070000E947E048DE991E00E946C04B701FF0C90
:10108000880B990B0E94330A2DE032E348EC5DE3B4
:101090000E94E80A0E94FB09CB010E94CD0486EA67
:1010A00091E00E947E048AEA91E00E946C048A81A9
:1010B00090E00E94CD0482EB91E00E947E0486EBDA
:1010C00091E00E946C04898190E00E94CD0482EC42
:1010D00091E00E947E048A818E3220F081E080932C
:1010E000CF0102C01092CF018091CF01882331F04F
:1010F00061E087E00E94F30161E005C060E087E005
:101100000E94F30160E086E00E94F30168EE73E064
:1011100080E090E00E949B020E9497011BCFE6EDC9
:10112000F1E01382128288EE93E0A0E0B0E08483C5
:101130009583A683B78386E191E09183808385ECD4
:1011400090E09587848784EC90E09787868780EC91
:1011500090E0918B808B81EC90E0938B828B82EC82
:1011600090E0958B848B86EC90E0978B868B118E2C
:10117000128E138E148E0895052E97FB1EF4009484
:101180000E94D30857FD07D00E94E60807FC03D051
:101190004EF40C94D30850954095309521953F4FCF
:1011A0004F4F5F4F089590958095709561957F4F53
:1011B0008F4F9F4F08950E940809A59F900DB49FDF
:1011C000900DA49F800D911D11240895A1E21A2E67
:1011D000AA1BBB1BFD010DC0AA1FBB1FEE1FFF1FDB
:1011E000A217B307E407F50720F0A21BB30BE40B2B
:1011F000F50B661F771F881F991F1A9469F7609572
:101200007095809590959B01AC01BD01CF0108952B
:10121000A29FB001B39FC001A39F700D811D112437
:10122000911DB29F700D811D1124911D089550587C
:10123000BB27AA270E942F090C94A90A0E949B0A87
:1012400038F00E94A20A20F039F49F3F19F426F4E6
:101250000C94980A0EF4E095E7FB0C94920AE92F9F
:101260000E94BA0A58F3BA176207730784079507F2
:1012700020F079F4A6F50C94DC0A0EF4E0950B2E20
:10128000BA2FA02D0B01B90190010C01CA01A001D8
:101290001124FF27591B99F0593F50F4503E68F133
:1012A0001A16F040A22F232F342F4427585FF3CF74
:1012B000469537952795A795F0405395C9F77EF445
:1012C0001F16BA0B620B730B840BBAF09150A1F08E
:1012D000FF0FBB1F661F771F881FC2F70EC0BA0F14
:1012E000621F731F841F48F4879577956795B7959C
:1012F000F7959E3F08F0B0CF9395880F08F0992797
:10130000EE0F9795879508950E946E0A08F481E084
:1013100008950E949D090C94A90A0E94A20A58F0FF
:101320000E949B0A40F029F45F3F29F00C94920A36
:1013300051110C94DD0A0C94980A0E94BA0A68F3C1
:101340009923B1F3552391F3951B550BBB27AA277E
:1013500062177307840738F09F5F5F4F220F331FB8
:10136000441FAA1FA9F335D00E2E3AF0E0E832D080
:1013700091505040E695001CCAF72BD0FE2F29D083
:10138000660F771F881FBB1F261737074807AB0755
:10139000B0E809F0BB0B802DBF01FF2793585F4FCA
:1013A0003AF09E3F510578F00C94920A0C94DD0AB5
:1013B0005F3FE4F3983ED4F3869577956795B795AC
:1013C000F7959F5FC9F7880F911D9695879597F9B7
:1013D0000895E1E0660F771F881FBB1F6217730730
:1013E0008407BA0720F0621B730B840BBA0BEE1F45
:1013F00088F7E09508950E94020A6894B1110C9450
:10140000DD0A08950E94C20A88F09F5798F0B92F0C
:101410009927B751B0F0E1F0660F771F881F991F29
:101420001AF0BA95C9F714C0B13091F00E94DC0AE5
:10143000B1E008950C94DC0A672F782F8827B85FF5
:1014400039F0B93FCCF3869577956795B395D9F781
:101450003EF490958095709561957F4F8F4F9F4F8B
:101460000895E89409C097FB3EF490958095709597
:1014700061957F4F8F4F9F4F9923A9F0F92F96E9E0
:10148000BB279395F695879577956795B795F11155
:10149000F8CFFAF4BB0F11F460FF1BC06F5F7F4FF2
:1014A0008F4F9F4F16C0882311F096E911C0772304
:1014B00021F09EE8872F762F05C0662371F096E80D
:1014C000862F70E060E02AF09A95660F771F881FDC
:1014D000DAF7880F9695879597F90895990F000880
:1014E000550FAA0BE0E8FEEF16161706E807F907F6
:1014F000C0F012161306E407F50798F0621B730B91
:10150000840B950B39F40A2661F0232B242B252B11
:1015100021F408950A2609F4A140A6958FEF811DB4
:10152000811D089597F99F6780E870E060E0089555
:101530009FEF80EC089500240A94161617061806EB
:101540000906089500240A941216130614060506C7
:101550000895092E0394000C11F4882352F0BB0F58
:1015600040F4BF2B11F460FF04C06F5F7F4F8F4FBB
:101570009F4F089557FD9058440F551F59F05F3FF6
:1015800071F04795880F97FB991F61F09F3F79F0A5
:1015900087950895121613061406551FF2CF469527
:1015A000F1DF08C0161617061806991FF1CF8695A9
:1015B0007105610508940895E894BB27662777278D
:1015C000CB0197F908950E946E0A08F48FEF0895F1
:1015D0000E94FB0A0C94A90A0E949B0A38F00E9400
:1015E000A20A20F0952311F00C94920A0C94980A08
:1015F00011240C94DD0A0E94BA0A70F3959FC1F37E
:10160000950F50E0551F629FF001729FBB27F00DB0
:10161000B11D639FAA27F00DB11DAA1F649F662705
:10162000B00DA11D661F829F2227B00DA11D621F54
:10163000739FB00DA11D621F839FA00D611D221F0E
:10164000749F3327A00D611D231F849F600D211DF2
:10165000822F762F6A2F11249F5750409AF0F1F075
:1016600088234AF0EE0FFF1FBB1F661F771F881FDE
:1016700091505040A9F79E3F510580F00C94920A7A
:101680000C94DD0A5F3FE4F3983ED4F3869577959A
:101690006795B795F795E7959F5FC1F7FE2B880F84
:1016A000911D9695879597F908950E946E0A880B6B
:1016B000990B089597FB072E16F4009407D077FD39
:1016C00009D00E946E0B07FC05D03EF490958195E1
:1016D0009F4F0895709561957F4F0895AA1BBB1B7E
:1016E00051E107C0AA1FBB1FA617B70710F0A61B22
:1016F000B70B881F991F5A95A9F780959095BC0143
:10170000CD010895EE0FFF1F0590F491E02D09948F
:0E17100081E090E0F8940C948D0BF894FFCFDC
:10171E000601000000001C04D502E303CD03D10531
:10172E006603000000002E019700C6007501F70049
:10173E00D500E9000D0A006E616E00696E66006FDD
:10174E007666003D3D3D3D3D3D3D3D3D3D3D3D3D96
:10175E003D3D3D3D3D3D3D3D3D3D3D3D3D3D3D3DAB
:10176E003D3D3D3D0053616D706C652066726F6D41
:10177E00205472616E73666F726D65720052656190
:10178E0064204448543131206661696C65642C20B4
:10179E006572723D0020416D706572653A200020C1
:1017AE00410020566F6C743A2000205600206C6564
:1017BE0076656C3A200020636D002054656D703A9A
:1017CE002000202A43002048756D69646974793AB7
:0617DE002000202A480053
:107E0000112484B714BE81FFF0D085E080938100F7
:107E100082E08093C00088E18093C10086E0809377
:107E2000C20080E18093C4008EE0C9D0259A86E02C
:107E300020E33CEF91E0309385002093840096BBD3
:107E4000B09BFECF1D9AA8958150A9F7CC24DD24C4
:107E500088248394B5E0AB2EA1E19A2EF3E0BF2EE7
:107E6000A2D0813461F49FD0082FAFD0023811F036
:107E7000013811F484E001C083E08DD089C08234E0
:107E800011F484E103C0853419F485E0A6D080C0E4
:107E9000853579F488D0E82EFF2485D0082F10E0AE
:107EA000102F00270E291F29000F111F8ED06801E7
:107EB0006FC0863521F484E090D080E0DECF843638
:107EC00009F040C070D06FD0082F6DD080E0C81688
:107ED00080E7D80618F4F601B7BEE895C0E0D1E017
:107EE00062D089930C17E1F7F0E0CF16F0E7DF06D8
:107EF00018F0F601B7BEE89568D007B600FCFDCFD4
:107F0000A601A0E0B1E02C9130E011968C91119780
:107F100090E0982F8827822B932B1296FA010C0160
:107F200087BEE89511244E5F5F4FF1E0A038BF0790
:107F300051F7F601A7BEE89507B600FCFDCF97BE46
:107F4000E89526C08437B1F42ED02DD0F82E2BD052
:107F50003CD0F601EF2C8F010F5F1F4F84911BD097
:107F6000EA94F801C1F70894C11CD11CFA94CF0C13
:107F7000D11C0EC0853739F428D08EE10CD085E9AC
:107F80000AD08FE07ACF813511F488E018D01DD067
:107F900080E101D065CF982F8091C00085FFFCCF94
:107FA0009093C60008958091C00087FFFCCF809118
:107FB000C00084FD01C0A8958091C6000895E0E648
:107FC000F0E098E1908380830895EDDF803219F02E
:107FD00088E0F5DFFFCF84E1DECF1F93182FE3DFCA
:107FE0001150E9F7F2DF1F91089580E0E8DFEE27F6
:047FF000FF270994CA
:027FFE00040479
:0400000300007E007B
:00000001FF
